{
  "_format": "hh-sol-artifact-1",
  "contractName": "ImageStorage",
  "sourceName": "contracts/ImageStorage.sol",
  "abi": [
    {
      "anonymous": false,
      "inputs": [
        {
          "indexed": false,
          "internalType": "uint256",
          "name": "imageId",
          "type": "uint256"
        },
        {
          "indexed": false,
          "internalType": "string",
          "name": "ipfsHash",
          "type": "string"
        },
        {
          "indexed": false,
          "internalType": "address",
          "name": "uploader",
          "type": "address"
        }
      ],
      "name": "ImageUploaded",
      "type": "event"
    },
    {
      "inputs": [
        {
          "internalType": "uint256",
          "name": "_imageId",
          "type": "uint256"
        }
      ],
      "name": "getImage",
      "outputs": [
        {
          "components": [
            {
              "internalType": "string",
              "name": "ipfsHash",
              "type": "string"
            },
            {
              "internalType": "address",
              "name": "uploader",
              "type": "address"
            },
            {
              "internalType": "uint256",
              "name": "timestamp",
              "type": "uint256"
            }
          ],
          "internalType": "struct ImageStorage.Image",
          "name": "",
          "type": "tuple"
        }
      ],
      "stateMutability": "view",
      "type": "function"
    },
    {
      "inputs": [],
      "name": "imageCount",
      "outputs": [
        {
          "internalType": "uint256",
          "name": "",
          "type": "uint256"
        }
      ],
      "stateMutability": "view",
      "type": "function"
    },
    {
      "inputs": [
        {
          "internalType": "uint256",
          "name": "",
          "type": "uint256"
        }
      ],
      "name": "images",
      "outputs": [
        {
          "internalType": "string",
          "name": "ipfsHash",
          "type": "string"
        },
        {
          "internalType": "address",
          "name": "uploader",
          "type": "address"
        },
        {
          "internalType": "uint256",
          "name": "timestamp",
          "type": "uint256"
        }
      ],
      "stateMutability": "view",
      "type": "function"
    },
    {
      "inputs": [
        {
          "internalType": "string",
          "name": "_ipfsHash",
          "type": "string"
        }
      ],
      "name": "uploadImage",
      "outputs": [],
      "stateMutability": "nonpayable",
      "type": "function"
    }
  ],
  "bytecode": "0x608060405234801561001057600080fd5b50610ca2806100206000396000f3fe608060405234801561001057600080fd5b506004361061004c5760003560e01c80632607aafa14610051578063848564821461008157806392053b63146100b3578063e740c8a0146100d1575b600080fd5b61006b600480360381019061006691906104af565b6100ed565b604051610078919061060c565b60405180910390f35b61009b600480360381019061009691906104af565b61020b565b6040516100aa93929190610696565b60405180910390f35b6100bb6102dd565b6040516100c891906106d4565b60405180910390f35b6100eb60048036038101906100e69190610824565b6102e3565b005b6100f561042e565b6000808381526020019081526020016000206040518060600160405290816000820180546101229061089c565b80601f016020809104026020016040519081016040528092919081815260200182805461014e9061089c565b801561019b5780601f106101705761010080835404028352916020019161019b565b820191906000526020600020905b81548152906001019060200180831161017e57829003601f168201915b505050505081526020016001820160009054906101000a900473ffffffffffffffffffffffffffffffffffffffff1673ffffffffffffffffffffffffffffffffffffffff1673ffffffffffffffffffffffffffffffffffffffff1681526020016002820154815250509050919050565b600060205280600052604060002060009150905080600001805461022e9061089c565b80601f016020809104026020016040519081016040528092919081815260200182805461025a9061089c565b80156102a75780601f1061027c576101008083540402835291602001916102a7565b820191906000526020600020905b81548152906001019060200180831161028a57829003601f168201915b5050505050908060010160009054906101000a900473ffffffffffffffffffffffffffffffffffffffff16908060020154905083565b60015481565b6000815111610327576040517f08c379a000000000000000000000000000000000000000000000000000000000815260040161031e90610919565b60405180910390fd5b6001600081548092919061033a90610968565b919050555060405180606001604052808281526020013373ffffffffffffffffffffffffffffffffffffffff16815260200142815250600080600154815260200190815260200160002060008201518160000190816103999190610b5c565b5060208201518160010160006101000a81548173ffffffffffffffffffffffffffffffffffffffff021916908373ffffffffffffffffffffffffffffffffffffffff160217905550604082015181600201559050507f3543a6878b0a0f9ec87fe453b8f783f8cee19541e78b2c83d591c7b1228b62c5600154823360405161042393929190610c2e565b60405180910390a150565b604051806060016040528060608152602001600073ffffffffffffffffffffffffffffffffffffffff168152602001600081525090565b6000604051905090565b600080fd5b600080fd5b6000819050919050565b61048c81610479565b811461049757600080fd5b50565b6000813590506104a981610483565b92915050565b6000602082840312156104c5576104c461046f565b5b60006104d38482850161049a565b91505092915050565b600081519050919050565b600082825260208201905092915050565b60005b838110156105165780820151818401526020810190506104fb565b60008484015250505050565b6000601f19601f8301169050919050565b600061053e826104dc565b61054881856104e7565b93506105588185602086016104f8565b61056181610522565b840191505092915050565b600073ffffffffffffffffffffffffffffffffffffffff82169050919050565b60006105978261056c565b9050919050565b6105a78161058c565b82525050565b6105b681610479565b82525050565b600060608301600083015184820360008601526105d98282610533565b91505060208301516105ee602086018261059e565b50604083015161060160408601826105ad565b508091505092915050565b6000602082019050818103600083015261062681846105bc565b905092915050565b600082825260208201905092915050565b600061064a826104dc565b610654818561062e565b93506106648185602086016104f8565b61066d81610522565b840191505092915050565b6106818161058c565b82525050565b61069081610479565b82525050565b600060608201905081810360008301526106b0818661063f565b90506106bf6020830185610678565b6106cc6040830184610687565b949350505050565b60006020820190506106e96000830184610687565b92915050565b600080fd5b600080fd5b7f4e487b7100000000000000000000000000000000000000000000000000000000600052604160045260246000fd5b61073182610522565b810181811067ffffffffffffffff821117156107505761074f6106f9565b5b80604052505050565b6000610763610465565b905061076f8282610728565b919050565b600067ffffffffffffffff82111561078f5761078e6106f9565b5b61079882610522565b9050602081019050919050565b82818337600083830152505050565b60006107c76107c284610774565b610759565b9050828152602081018484840111156107e3576107e26106f4565b5b6107ee8482856107a5565b509392505050565b600082601f83011261080b5761080a6106ef565b5b813561081b8482602086016107b4565b91505092915050565b60006020828403121561083a5761083961046f565b5b600082013567ffffffffffffffff81111561085857610857610474565b5b610864848285016107f6565b91505092915050565b7f4e487b7100000000000000000000000000000000000000000000000000000000600052602260045260246000fd5b600060028204905060018216806108b457607f821691505b6020821081036108c7576108c661086d565b5b50919050565b7f4950465320686173682069732072657175697265640000000000000000000000600082015250565b600061090360158361062e565b915061090e826108cd565b602082019050919050565b60006020820190508181036000830152610932816108f6565b9050919050565b7f4e487b7100000000000000000000000000000000000000000000000000000000600052601160045260246000fd5b600061097382610479565b91507fffffffffffffffffffffffffffffffffffffffffffffffffffffffffffffffff82036109a5576109a4610939565b5b600182019050919050565b60008190508160005260206000209050919050565b60006020601f8301049050919050565b600082821b905092915050565b600060088302610a127fffffffffffffffffffffffffffffffffffffffffffffffffffffffffffffffff826109d5565b610a1c86836109d5565b95508019841693508086168417925050509392505050565b6000819050919050565b6000610a59610a54610a4f84610479565b610a34565b610479565b9050919050565b6000819050919050565b610a7383610a3e565b610a87610a7f82610a60565b8484546109e2565b825550505050565b600090565b610a9c610a8f565b610aa7818484610a6a565b505050565b5b81811015610acb57610ac0600082610a94565b600181019050610aad565b5050565b601f821115610b1057610ae1816109b0565b610aea846109c5565b81016020851015610af9578190505b610b0d610b05856109c5565b830182610aac565b50505b505050565b600082821c905092915050565b6000610b3360001984600802610b15565b1980831691505092915050565b6000610b4c8383610b22565b9150826002028217905092915050565b610b65826104dc565b67ffffffffffffffff811115610b7e57610b7d6106f9565b5b610b88825461089c565b610b93828285610acf565b600060209050601f831160018114610bc65760008415610bb4578287015190505b610bbe8582610b40565b865550610c26565b601f198416610bd4866109b0565b60005b82811015610bfc57848901518255600182019150602085019450602081019050610bd7565b86831015610c195784890151610c15601f891682610b22565b8355505b6001600288020188555050505b505050505050565b6000606082019050610c436000830186610687565b8181036020830152610c55818561063f565b9050610c646040830184610678565b94935050505056fea264697066735822122033d4c9b99adcfa6f66a191bb8b0265c5b18dbcb28cf3b93889ed17943f167b4764736f6c63430008150033",
  "linkReferences": {},
  "deployedLinkReferences": {}
}